:020000040000FA
:1000000000020400000000002203000022030000A0
:10001000220300002203000022030000220300004C
:10002000220300002203000022030000220300003C
:1000300022030000F07900002203000022030000E8
:10004000220300002203000022030000220300001C
:100050002203000022030000220300002A6F000098
:1000600022030000220300002203000022030000FC
:1000700022030000220300002203000022030000EC
:1000800022030000220300002203000022030000DC
:1000900022030000E002000004030000220300002D
:1000A00022030000220300002203000022030000BC
:1000B00022030000220300002203000022030000AC
:1000C000220300002203000022030000220300009C
:1000D000220300002203000022030000220300008C
:1000E000220300002203000022030000220300007C
:1000F000220300002203000022030000220300006C
:10010000220300002203000022030000220300005B
:10011000220300002203000022030000220300004B
:10012000220300002203000022030000220300003B
:10013000220300002203000022030000220300002B
:10014000220300002203000022030000220300001B
:10015000220300002203000022030000220300000B
:1001600022030000220300002203000022030000FB
:1001700022030000220300002203000022030000EB
:1001800022030000220300002203000022030000DB
:1001900022030000220300002203000022030000CB
:1001A00022030000220300002203000022030000BB
:1001B00022030000220300002203000022030000AB
:1001C000220300002203000022030000220300009B
:1001D000220300002203000022030000220300008B
:1001E000220300002203000022030000220300007B
:1001F000220300002203000022030000220300006B
:10020000220300002203000022030000220300005A
:10021000220300002203000022030000220300004A
:10022000220300002203000022030000220300003A
:10023000220300002203000022030000220300002A
:10024000220300002203000022030000220300001A
:10025000220300002203000022030000220300000A
:0802600022030000220300004C
:100400002FBD21000EFF27000E0188000000000014
:10041000000020000000E000020032000001200087
:10042000200288000C000700C0F426000100200014
:100430000F000700000020000000E0000200320072
:10044000000002000000000016740200000000001E
:100450000040DA000000FE0040B923000000E00088
:1004600002003200002020009001880000000600F9
:10047000A1028800800078000000EB001A0037001D
:10048000E280400054A0B4009101BA00E280400034
:1004900054A0B4009102BA00E280400054A0B4001D
:1004A0000002EB00472BDE00F507B200A601880032
:1004B000602CE10008003A000049EB000201E8006E
:1004C000020039003420EC0002F0A0008301E900B2
:1004D000F9FF3E00040037006128E100010032000E
:1004E0000082EB000B00070011C3BA001101BA0033
:1004F0000604E00003003A000200E000E0FF3A00DA
:1005000000000600F607B200A6028800820078000C
:10051000F5FF370004D0A300E20F49001C003900AA
:10052000810278003549BA000201E8000200390072
:100530003420EC0002F0A0008301E9000F0032003B
:100540002549BA000201E800020039003420EC001D
:1005500002F0A0008301E900080032000400E0007E
:100560000600320015C9BA000201E8000200390095
:100570003420EC0002F0A0008301E9008180E80053
:1005800054A0B4000300E000E2FF3A0000000600BF
:100590009102BA00055978008301E900F7FF3200A3
:1005A000C82ADE00055978008301E900F3FF320014
:1005B0000400E000F1FF320011D9BA00EEFF37006D
:1005C000801F78003200F8003400F800100020008E
:1005D000A001880000202000900188000000000099
:1005E0000000FA000368A900008180000000E80014
:1005F000008188000080FA003400F9003200F90020
:100600004F007800004006003200F8003400F80087
:10061000881F780018002000A8018800082020000A
:1006200098018800000000004F0478000000FA00E4
:100630000388A9000080FA003400F9003200F900B4
:10064000004006000040DA000000FE002148A9003A
:1006500041E2A9000148A900000006000012800044
:10066000614060000000060010128800211288001E
:1006700002128800000006000080EB004002AB0080
:100680000700320040C2A9004342AB000200320022
:10069000401280000000060040128000F00FB200FF
:1006A000000006004342AB0001003A00F00FB20028
:1006B00040128800000006000621EF000A21EF002A
:1006C0006208880073088800800888001061A8000C
:1006D000000006001421EF00D1088800F00888000F
:1006E0001E61A900000006001821EF00E108880043
:1006F00000098800000006004108880030088800D2
:1007000000000600A008880000000600C00888005D
:100710000000060003F0A200889FBE008A9FBE0072
:100720008C1F7800280107002F0133006450E1007E
:100730004F0032006420E1005200320003826C005E
:1007400007003B000905D0000306D000820F5400CB
:100750000C065D00020039000200320089017800B9
:10076000030678008582550004003D000003FD006B
:100770008103FD008502EA008B854200840F720030
:1007800002003B0060001000E08018006011B8001B
:100790000005EB007A28E1000A0039000600780025
:1007A000C75DDD00F707B200878075002D003700B8
:1007B000828171000A017800610560008180D100AA
:1007C0000080D3008502E900F9FF3B0006044000E9
:1007D0008784480002003B0060041400E0841C0091
:1007E0000988A300070032008A81710082817100AC
:1007F000610164008904D1000884D3008B05E800FE
:10080000170037000978A30013003A000B00E0003E
:10081000130034008B05E9000804440089844C006F
:100820000A4474000978A3000D003A000B00E000B0
:10083000070034008B05E9000804440089844C005B
:1008400001003A000B0020000978A300F7FF3200F6
:100850000001EB0002003700828171000A0178007C
:100860009E0007000CF0A70001F0A000E700370091
:100870006420E10002003A00838F6C00E70033003F
:100880000801BE000200BE00E00037000081EB005E
:1008900028013700889FBE008A9FBE008C1F780009
:1008A000C9000700D000330003866C006450E100EB
:1008B0002E0032006420E100330032006150E1007C
:1008C0002F0032006120E1003100320085855500A3
:1008D000EB07B000090020000804200005003700E5
:1008E0000804440089844C000A00310006034300D8
:1008F00087834B000001530081815B00F8FF3300C8
:100900000203BE000800A0000804440089844C00D3
:10091000F6FF3900C639DD008301730001003200A3
:10092000130020008904D1000884D3000998A30093
:10093000050032000800A7000300A0008904D100D0
:100940000884D3008B05E8008904D1000884D30013
:100950000001EB000281D2006000070001F0A1005D
:100960000CF0A70001F0A000A80037006420E1000F
:10097000AA0032000801BE000200BE00F7FF3700E7
:100980006120E100A50032006000B800F3FF3700ED
:100990000000200001F82700F0FF3700839F680067
:1009A0000100E00002003D0060001000E08018003F
:1009B0000300E00002003D0060011100E081190029
:1009C000470107004F00E00002003B0060001000FC
:1009D000E0801800000006001400200053013700DA
:1009E0000001BE00630007000470A70003F0A1002F
:1009F0006509B100160032000D0035006828E100DD
:100A000006003500F0FF2F00F1FF27000300E00093
:100A100013003B000100280000000500000040001A
:100A2000818048008502E900FCFF3A000800370099
:100A3000F88F420002003C008000EB00000005003F
:100A40008100D1000080D3008502E800FCFF3A005D
:100A50000300E00002003B0060001000E08018008E
:100A6000000006000001BE00420007000470A7005D
:100A700003F0A10003F8A30013003A006509B100D8
:100A800010003200090035006928E100020035003D
:100A9000010028000000050000004000818048009F
:100AA0008502E900FCFF3A0000000600F88F4200D2
:100AB000050035008100D1000080D3008502E800E8
:100AC000FCFF3A00000006008000EB00000005007B
:100AD0004F89DE00820178002F013700810020005D
:100AE000618055000B003D000B00200061FE2F00CF
:100AF0000100E1001D003400828171006101640089
:100B00008904D1000884D3000000E800FAFF3A000D
:100B100071002000610064000300700002006000AA
:100B20000900320061044400E0844C000988A500FB
:100B3000050032008B05E8006808E10002003A0079
:100B40008904D1000884D300F20F20000258E1008C
:100B500005003D00C75DDD00F907B2008980750022
:100B600008007800000006000BF827008B007800D2
:100B700000000500C70ADE00F107B200F50FB20061
:100B800008003200E1CF4200020032000170A000F4
:100B900024000500810F70000100320004080500E8
:100BA00044000500810F700002003A0014000500A7
:100BB0008502E9000000400081C04800FCFF3B00C6
:100BC0000170A000240005000004BE00E9FF07003A
:100BD0000003BE000405BE000200BE00E5FF0700E2
:100BE000844F7500000006000200BE006450E10062
:100BF000050036006420E100020036000968A30009
:100C000001003A000800BE000160A0004F06780015
:100C10004F05BE004F04BE0000000600F0FF2F008D
:100C2000F1FF2700F9FF3700811F78000100E00085
:100C300002003D0060001000E08018000300E000AA
:100C400002003D0060011100E0811900B4000700BE
:100C50004F00E00002003B0060001000E080180040
:100C600000000600889FBE008A9FBE008C1F78008F
:100C7000D5FF0700DCFF330003866C006450E10001
:100C8000240032006420E100270032006150E100BE
:100C9000220032006120E100210032008B854200F9
:100CA000EB07B1000134B800003AB8000804420074
:100CB00089844A00013AB8000030B80088804000BA
:100CC00009014A0004003300000040008180480010
:100CD000020149008B05E900C909DD0083017000AC
:100CE0000100320013002000C814DE004814DD00AB
:100CF0004709DE001200B200C808DE000884700058
:100D000076FF070001F0A1000CF0A70001F0A000A1
:100D1000BEFF37006120E100C0FF32000801BE00C5
:100D20000200BE00F7FF37006150E100FCFF3A000F
:100D3000BAFF3700889FBE008A9FBE008C9FBE000E
:100D4000820578000004BE008AFF07000800BE008C
:100D50006420E1000700390002003A00F1FF27009B
:100D6000F0FF2F000160A000120220002281880005
:100D7000550037006120E10003003A000B00A70096
:100D800001F823005000370001F0A100020021000B
:100D90009364240010FF07000800BE000400350023
:100DA000B2FD2000930C2400BA0007000004BE002E
:100DB0000005EB000B00A6004F0DDE0001F0A100C6
:100DC0000004BE0032982F0023EA2300A5FF07008D
:100DD0000001EB0003F023000B00A70003F8230041
:100DE0004DFE0700FEFE07000000A7000A00A2005B
:100DF00037FF07000B00E000030032000200200074
:100E000003F0230043FE070001F0A2000006BE002D
:100E1000020020009304240092FF07000801BE0096
:100E20003DFE0700809FBE000C00BE0022A22A00EB
:100E3000D3A723008BFF07004F01BE0036FE07003B
:100E40000004BE0001F0A10002002000039823006E
:100E5000E1FE07000800BE00190035000001BE00D9
:100E600080FF07000006BE00B2C52900E362230030
:100E70007CFF070022222B00F3942B0026FE0700A4
:100E80000C01BE0077FF0700E273280083C0230037
:100E900021FE07000C01BE0072FF070042AA2A00D3
:100EA000A3E22B001CFE07000C01BE006DFF070033
:100EB0000801BE006BFF07000801BE0016FE070018
:100EC0000A00A70001F0A2004F06BE004F05BE00B9
:100ED0004F04BE00000006000001EB0095FF370044
:100EE0006022B800060220000000D0008180D200FD
:100EF0000482D2008582D2000000A00002025200CB
:100F000083825A00030031000202420083824A00B9
:100F10000000A1000603E900F3FF3A00000006000C
:100F2000EFFF07000400BE0000000600889FBE001F
:100F30008A9FBE00841F780023FF07004F007800BF
:100F400011003300F0FF2F00838F6C0006003B0080
:100F5000040565000A00A7000800370009F0A60094
:100F60001000200008003700820F5400838F5C00BF
:100F7000030039001000200001003E0000002000A6
:100F800009F0A7000000EA004F05BE004F04BE00B4
:100F90000000E00000000600881F780003047800CD
:100FA0000300E00007003D0060001000E080180032
:100FB00060011900E081190002003B0001F02D00E2
:100FC000030037000400070008F0A70001F0A000AC
:100FD0004F04780000000600889FBE008A9FBE0074
:100FE0000082700004027100048271002600320049
:100FF0000004BE000200BE006011B8006B092000B2
:10100000950220000182CF000A0039000541B1009D
:101010000082CF00070039000541B1000982CF00EE
:10102000040039000541B1000882CF0001003900F9
:101030000541B10005425200120032000A003B0097
:1010400082817100610164008100D1000080D300C1
:101050008984D3000884D3008B05E8000442E800AB
:10106000F7FF3A00070037000804440089844C0069
:1010700000004800818048008B05E9000442E90037
:10108000F9FF3A0095FE07004F05BE004F04BE0071
:10109000000006000400200000003700889FBE000A
:1010A0008A9FBE008C1F78004F26DD00C6FE070019
:1010B000CDFE33006120E100430032006250E100C8
:1010C00041003E003E0039006420E1003C00320057
:1010D000058255000F003B000402E80038003A008A
:1010E000800F5300818F5B00350034000800BE0084
:1010F00003F0A10001F0A60003F0A0000CF0A7008F
:1011000085FD0700C1FE37000603430087834B00BF
:101110000C4646000005530081855B000200330049
:101120000A03BE000C00A0000402E900F6FF3B0029
:10113000850578000602430087824B0004003A00D0
:101140006000B80009F0A70001F0A000AFFE370072
:101150000002520081825A000704E00004003300BC
:101160000603430087834B008B05E900FAFF370035
:10117000090578000604BE000203BE006011B80035
:1011800056FE0700E00F5200E08F5A0007003500BE
:1011900002003C000C08A300040032000601BE005F
:1011A00003F0A0000CF0A7005BFD07000A856800B3
:1011B00001F0A1000AF0A70001F0A00093FE3700A3
:1011C0000800BE0091FE3700100220000CF0A600BF
:1011D0002081880091FE37008001780002003700EE
:1011E000B15978000201E9000200E000FCFF3A007A
:1011F000000006008000EB0040DE880051DE880021
:1012000011C0B30060BC2100014878000000060056
:1012100060BC21001004E00002003A001000200031
:10122000F4FF0700D2E62400631C240040DE8000A7
:1012300051DE8000600907009203230003002000B4
:10124000000141008181490042DE880053DE8800B0
:101250000300780000F0A100000006008000780084
:101260003104E000FEFF3A000080EA000080400008
:10127000000006000C00FA00889FBE000004780001
:10128000F0FF2700D0BF9F008004EB0099BF9F00B4
:1012900088BF9F00A8BF9F00200C2000B0BF9F0008
:1012A00078815700CFB0970070805700CF000700BB
:1012B0000FB89700094878008FB897000880500051
:1012C0004F04BE000080FA00000006000800FA008B
:1012D000889FBE008A9FBE000084FB00D1C6B30079
:1012E000814F5000340036004B06200011000900E9
:1012F0000B84D80081057800720040004300DD00B7
:10130000E9912100008044006022B800060020001E
:1013100007FE23005001BE004000BE00AF080700DA
:101320000002BE000203BE0084BF9F0095BF9F0065
:10133000A6BF9F00B7BF9F00AA00200011000900B0
:101340008A85D80080057800E9854500C35DDD0009
:101350008B8544003B02BE002B03BE000FB89700F4
:101360009FB897002FB99700BFB997009B08070057
:101370000002BE000203BE0084BF9F0095BF9F0015
:10138000A6BF9F00B7BF9F00110009000A84D800C4
:10139000010478004344DD00888444003902BE0023
:1013A0002903BE000FB897009FB897002FB9970088
:1013B000BFB997001D003700EA4F500013003600F8
:1013C000AA002000110009000A84D8000105780055
:1013D000690440004344DD00E99121000884440091
:1013E0006022B8000600200007FE23003800BE007F
:1013F0002801BE00790807004355DD008A844400B7
:101400003902BE002903BE00080037004344DD0056
:10141000E0912100080440006022B800060020008E
:1014200007FE23003800BE002801BE006B0807003D
:101430004F05BE004F04BE000080FA000000060009
:101440000800FA00889FBE008A9FBE00D1C6B30084
:101450000004E00023003D000040EA000004FB001F
:10146000814F50000A00340042062000110009009C
:101470000204D800A9002000110009008900D8004A
:10148000E9004000C308DD00EA9121002100370097
:10149000EA4F500010003400A200200011000900A3
:1014A0000204D80001017800690040004300DD001B
:1014B000E1912100008040004311DD008280400066
:1014C0003102BE002103BE005001BE004000BE003C
:1014D00042080700380037004344DD00E091210056
:1014E000320037000004FB00814F5000230034001D
:1014F00042062000110009000204D800A9002000C3
:10150000110009008900D800E9004000C308DD008F
:10151000EA862100810045003102BE002103BE00A1
:101520008B0920008A8545003B00BE002B01BE00D0
:101530002A0807000002BE000203BE0084BF9F000D
:1015400095BF9F00A6BF9F00B7BF9F001100090075
:101550000904D800010478004344DD000805450073
:101560003A02BE002A03BE000FB897009FB897004A
:101570002FB99700BFB99700D5FF3700EA4F500049
:1015800008003400A2002000110009000204D80065
:1015900001017800690040004300DD00E186210080
:1015A000C4FF37004344DD00E0862100080440000A
:1015B0003800BE002801BE004F05BE004F04BE002B
:1015C0000080FA0000000600D00190000281510066
:1015D0004240A9000300340010017800014978005E
:1015E0000208E8000100780000000600EF03B000E8
:1015F000889FBE008A9FBE008C9FBE008E1F780011
:1016000000067800E19F9F0082AF9F006000B80055
:101610006011B80080A79F0091A79F00A2A79F001C
:10162000B3A79F008006EB009B053700EF9897005B
:101630008100E800E19F9F0051C2B300814F50003C
:1016400003003A006F9997000007EB001100370084
:10165000BC0090000000FB000168A30007003200FE
:101660000D017800800078000C007800D6FF07009C
:101670000000E00005003A00870537008C00780084
:1016800091050700E10F4000830532008D06E80058
:101690008105370002007800B2407800D3C2B30061
:1016A00083CF50000C00320007003C00EDC1510018
:1016B00083CF50000A003200EBC1410083CF5000BD
:1016C0000D003A000800370003C3B30083CF500079
:1016D00009003A00060037000E30A000EDFF370089
:1016E0000E00A000EBFF37000E10A000E9FF37004E
:1016F0000E20A000E7FF37000E18A3000100320003
:101700000E00A1000E38A300010032000E20A1003F
:101710000101FB000203B100E90F51000E003E0081
:10172000800078000001EB0092B79F00EA11B90039
:101730003100FB000003B10002014000010078000D
:101740009101FB000303B100E98F5100F7FF360060
:1017500092B79F000A0037008001EB0093B79F000B
:10176000A2C2B30082CF500005003A000FAA970032
:10177000C402780084AF9F0095B79F000000E80086
:10178000E1C2B30090CF100017003A000EE0A000B5
:10179000E4C05000D0CF1000030032008000780079
:1017A0008001EB00090037008FAB9700C70078007D
:1017B00087AF9F00D1AF9F000000E80000017800D4
:1017C0000D003700EA18B9008001410001007800DF
:1017D0003101FB000203B100E90F5100F9FF3600AF
:1017E000D3AF9F00F5FF37000EC0A0000001EB0053
:1017F000D2AF9F00F1FF37008201780033407800BC
:1018000003017800C1C6B300814F50002B003200A5
:10181000E39F9F0014003C00E8C05000814F50003F
:101820002400320009003C00ECC05000814F500001
:101830002E003200EBC04000814F50009800320073
:101840000004E00019053200B400370061C6B3009F
:10185000814F50001F003200E3C04000814F500014
:10186000AE003A001300370031C7B300814F50007B
:101870002200320007003C00E4C05000814F5000BD
:10188000170032008140E800814F5000A3003A0069
:101890001600370051C7B300814F5000A40032003A
:1018A000E3C04000814F50009C003A00E0779F0069
:1018B00010003700E0779F009F00370000012000F4
:1018C0000E48A30001003200000028000E0770003F
:1018D000C9FF3700E0779F000EA0A00096003700F8
:1018E000E0779F000E60A00093003700E0779F0034
:1018F0000E50A0000E70A0008F003700E0779F0010
:101900008FA997004300780083AF9F000004780000
:101910000000E00001003A0088AF210008017800D3
:101920000000EB00010037000000E80080004100EB
:101930001104E000FCFF3A00800478005FAA9700E1
:101940000400E00003003200890F52000100310062
:10195000840478008001EB009FB29700898F5200C9
:10196000010036008981520068036700D6AF9F00EE
:101970002C003A0003077800110037003C0090006B
:101980000068A300070032000D017800010220006A
:101990000C0078000CFF07000000E00006003A0091
:1019A000060037008C00780000022000C604070003
:1019B000E10F4000010032008D06E8000E07E9004B
:1019C0000E00E000EDFF3A008081EB0015003700CB
:1019D0003C0090000068A300090032000800780075
:1019E000B000FB00000478000D0178000C007800C6
:1019F000F5FE07000000E00008003A000A0037008A
:101A0000880078003100FB00010478008C00780029
:101A1000AD040700E10F4000030032008D06E8002E
:101A20000100370003077800090078008004E9000E
:101A30000000E000E6FF3A008E017800DFAB97007F
:101A40000700E0009404320003077800110037001B
:101A50003C0090000068A300070032000D017800F0
:101A6000010220000C007800D7FE07000000E00013
:101A700006003A00060037008C00780000022000C3
:101A800091040700E10F4000010032008D06E800DC
:101A90000E07E9000E00E000EDFF3A007E0437007B
:101AA0008FA897004100780081AF9F006102B900C4
:101AB000612BB90094AF9F00A5AF9F00B6AF9F0008
:101AC000C7AF9F004822DE004828DD0004027000F6
:101AD000E4779F000E48A300090032000404E000F0
:101AE00007003200E14F420005003200F4779F000A
:101AF000AFD09700817F9F002900200003003700AE
:101B00002FD19700F2779F001900200063FB2F0070
:101B10008F8141000304E80088FF3700E0779F00D1
:101B200068FB2F000F0444001900200083FF3700DA
:101B3000E0779F000E0CB3000070200000006700EB
:101B4000640232000EC8A3000200320064002000CC
:101B5000D4AF9F000E48A300090032000FAA9700DF
:101B60004401BE004400BE0084AF9F0090AF9F00C0
:101B7000A1AF9F00B2AF9F00C3AF9F000A00370024
:101B80008FAA97004500BE0085AF9F00FB050700A8
:101B90000002BE000203BE0094AF9F00A5AF9F00ED
:101BA000B6AF9F00C7AF9F006022B8006033B80097
:101BB0001FA89700AFA897003FA99700CFA997004B
:101BC000400507000000E0000A003D001FA8970044
:101BD000AFA897003FA99700CFA9970003F0A200F4
:101BE00090AF9F00A1AF9F00B2AF9F00C3AF9F0017
:101BF0003E00B3000000EB00D09F9F006022B800C1
:101C00006033B8001FA89700AFA897003FA99700BE
:101C1000CFA997008F0507000000E00034003200D4
:101C2000A4FB2F000F0242001FA89700AFA8970047
:101C30003FA99700CFA997004B0607005F98970030
:101C40000000E900E300B900A20020001100090033
:101C50000200D800D09F9F000000E00002003D007D
:101C60000000E900D09F9F005F9C97000840EA00B9
:101C7000F3FD07001FAA9700AFAA97003FAB97009C
:101C8000CFAB9700550607000002BE000203BE005E
:101C900084A79F0095A79F00A6A79F00B7A79F00B6
:101CA0006022B8000600200007FF2300050507009A
:101CB0000000E00002003D000804E9000B003700CE
:101CC0006022B80006002000470224000FA0970001
:101CD0009FA097002FA19700BFA19700FE040700C7
:101CE0000000E000020035000804E800D89F9F00D3
:101CF000DFAA9700F88F52000F003C0005407800E3
:101D000072FD07000002BE000203BE001FA897007C
:101D1000AFA897003FA99700CFA997006C040700D0
:101D20000002BE000203BE0094AF9F00A5AF9F005B
:101D3000B6AF9F00C7AF9F005F9C9700E90F5400AC
:101D400015003C006022B8006033B8001FA897005F
:101D5000AFA897003FA99700CFA997003D050700BE
:101D60000000E000320032001FA89700AFA89700E3
:101D70003FA99700CFA997009F050700E00F5000EB
:101D8000E08F5800E00F5900E08F590028003A001A
:101D9000E10F5400260034000400200005002E004E
:101DA000B6E02200170124000FA097009FA0970023
:101DB0002FA19700BFA19700C20407000000E00018
:101DC00002003D0073045400010037007204540007
:101DD000D89F9F002F78970099FD07000002BE0052
:101DE0000203BE0084A79F0095A79F00A6A79F009F
:101DF000B7A79F001FA89700AFA897003FA997001B
:101E0000CFA99700B90407007B0507000205BE00B3
:101E10000004BE006000B8006011B80090AF9F00E1
:101E2000A1AF9F00B2AF9F00C3AF9F001700370064
:101E30001FA89700AFA897003FA99700CFA99700C8
:101E40006D0507000205BE000004BE009B050700EB
:101E50000002BE000203BE001FA89700AFA89700B3
:101E60003FA99700CFA99700510607000002BE00C6
:101E70000203BE0094AF9F00A5AF9F00B6AF9F00C6
:101E8000C7AF9F000000EB00D09F9F0085B02100EE
:101E900014C0B300080037003500BE003501BE0095
:101EA0000040E10001C8E10002D0E10003D8E100F8
:101EB000030039000442E800F44F5200F6FF3A00F4
:101EC000E4779F005F9897009FB2970000805200D0
:101ED0005FAB9700860050000400FB0000805000BC
:101EE00090B79F000600E000020032000000E90009
:101EF00090B79F0063006700030032009FB3970014
:101F00008703E90097B79F000E28A3005000320016
:101F1000610167000E18A3000F0032003C00900022
:101F20000068A30006003200B10220000200E000B9
:101F3000010032008180E8000D0178000D003700BB
:101F4000B00220000200E000010032000080E80042
:101F50008C0078000E0037000200E00033003200F1
:101F60003C0090000068A300070032000D017800DB
:101F7000010220000C00780093FD07000000E00043
:101F800006003A00290037008C007800000220008B
:101F90004D030700E10F4000240032008D06E800E9
:101FA000220037003C0090000068A3000F003200C0
:101FB0000D017800010320000C007800F4B79F00A9
:101FC00085BF9F00D6B79F00E7B79F007EFD070043
:101FD0007FB297008FBA97005FB39700EFB3970077
:101FE0000000E0000E003A000E0037008C00780080
:101FF00000032000F4B79F0085BF9F00D6B79F0065
:10200000E7B79F00300307007FB297008FBA9700B1
:102010005FB39700EFB39700E10F4000010032007B
:102020008D06E8008904E900030037000802BE00BD
:102030000A03BE009FB497000900E000D9FF3C00EE
:1020400099B79F000605BE000404BE006700370074
:102050000E38A3001E003A00C8A79F00D9A79F0012
:10206000EAA79F00FBA79F009FB4970011003700CD
:102070003C0090000068A300070032000D017800CA
:10208000010220000C0078004FFD07000000E00076
:1020900006003A00060037008C007800000220009D
:1020A00009030700E10F4000010032008D06E8003F
:1020B0008904E9000900E000EDFF3C0099B79F00AA
:1020C0004FA49700DFA497006FA59700FFA5970086
:1020D000610167000E18A3000E0032003C00900062
:1020E0000068A30005003200B10220000200E000F9
:1020F000250032008180E80023003700B002200074
:102100000200E000010032000080E8008C0078004E
:10211000320037000200E000340032003C00900042
:102120000068A300030032000D01780001022000C6
:10213000160037008C0078000002200027003700CE
:102140003C0190008100FB0000B021000268A30068
:1021500013003200C308DD00010040003002BE0061
:102160002003BE000800BE000A01BE0031060700C1
:10217000A4002000050020006033B80034060700EA
:1021800001032000808040000D0178000C007800E1
:102190000DFD07000000E00013003A0013003700B7
:1021A000C308DD00010040003002BE002003BE0075
:1021B0000800BE000A01BE001E060700A4002000A1
:1021C000050020006033B80021060700020320004C
:1021D000000141008C00780002007800BA0207007C
:1021E000E10F4000010032008D06E8006F7097009B
:1021F0008040E900E1779F000004E000D0FF3A0052
:10220000130037003C0090000068A3000700320074
:102210000D017800010320000C007800EAFC0700A3
:102220000000E00006003A00060037008C0078004D
:1022300000032000A4020700E10F4000010032006B
:102240008D06E8005F9897000000E900D09F9F008E
:102250005F9897000000E000EAFF3C00DFA89700CD
:10226000F28F50000300340020C1B300E0779F00DC
:10227000020037002FD99700E2779F006F70970018
:102280008000FB00DFA9970081805100D1AF9F0043
:102290000004E000100032003C0090000068A30041
:1022A000070032000D017800E10220000C007800E8
:1022B000C5FC07000000E00006003A0006003700F9
:1022C0008C007800E00220007F020700E10F400050
:1022D000010032008D06E8006F70970058FC07007F
:1022E0000002BE000203BE001FA89700AFA897001F
:1022F0003FA99700CFA99700B80407003E04070044
:10230000330037003C01900001B021000000FB00C9
:102310000268A300130032004300DD00008040008B
:102320003002BE002003BE000800BE000A01BE004D
:10233000C0050700A4002000050020006033B8009D
:10234000C30507000003B0000D017800800078008D
:102350000C0078009CFC07000000E00011003A002F
:10236000110037004300DD00008040003002BE0055
:102370002003BE000800BE000A01BE00AD05070034
:10238000A4002000050020006033B800B00507005D
:102390000003B0008C0078004B020700E10F400002
:1023A000010032008D06E8006F7297000400FB0008
:1023B0004300DD0001B02100008040003002BE007B
:1023C0002003BE000800BE000A01BE00A0050700F1
:1023D0000205BE000004BE00EF7097000140E90056
:1023E000E0779F000104E000C6FF3A0098AF9F002D
:1023F000A9AF9F00BAAF9F00CBAF9F00DFAC9700A3
:10240000110037003C0090000068A3000700320074
:102410000D017800010320000C0078006AFC070021
:102420000000E00006003A00060037008C0078004B
:102430000003200024020700E10F400001003200E9
:102440008D06E8008904E9000900E000EDFF3A008C
:102450001FAC9700AFAC97003FAD9700CFAD970092
:102460000E38A3000C0232009FB097000100E0007C
:1024700009023400D8AF9F00E9AF9F00FAAF9F0078
:102480008BB79F00810478003C0090000068A30097
:10249000070032000D017800010220000C007800D6
:1024A00049FC07000000E00006003A000600370083
:1024B0008C0078000002200003020700E10F4000BA
:1024C000010032008D06E8008904E900EEFF3A00C1
:1024D000F10137000E007800000CB20021003A0034
:1024E0000E00E00005003D008FAA97004505BE00E4
:1024F0004504BE0085AF9F000D0037000E48A300C5
:10250000060032000FAB97004604BE0086AF9F0066
:102510004FCDDE008A057800050037008FAB9700AD
:102520004704780087AF9F00CFC4DE00614DB9003B
:10253000E00F5400E08F5C00E00F5D00E08F5D0075
:102540001B003D003E00B3006000B8006011B80001
:1025500008045000898458000A0559008B855900E9
:10256000130037000E00E00005003D000FA89700A3
:102570004005BE004004BE0080AF9F000C00370045
:102580000E48A300050032008FA897004104BE004A
:102590006055B80081AF9F00050037000FA9970074
:1025A0004204780082AF9F008004EB006055B800C1
:1025B000DFA997000300E00009003A0014002000A2
:1025C000D4AF9F00E00F5400E08F5C00E00F5D008F
:1025D000E08F5D00020032008002EB00D5AF9F006B
:1025E0000E037800060CB20096AF9F000004200096
:1025F000800F53002C00320003003C000600E00076
:10260000080032003C003700000820009FAB970014
:10261000808F530010003200000C2000808F530088
:1026200035003A0085B0210014C0B3003500BE006B
:102630003501BE000040E10001C8E10002D0E10028
:1026400003D8E1002B0039000442E800F44F5200A7
:10265000F6FF3A002700370014C0B3000001200045
:10266000010020006011B8000040E10001C8E10055
:1026700002D0E10003D8E1001E003900450020002F
:102680000000D0008180D2000281D2008381D2007C
:102690008502E900FAFF3A000442E800F04F5200D8
:1026A000F1FF3A001300370014C0B300800020008F
:1026B000010020006011B8000040E10001C8E10005
:1026C00002D0E10003D8E1000A0039003600200002
:1026D0000000D0008180D2000281D2008381D2002C
:1026E0000603E900FAFF3A000442E800F54F520001
:1026F000F1FF3A00E4779F00EF7397000700FB00BB
:10270000DFA89700810F500002003D00E1779F0095
:10271000040037005FA99700800F510001003D00C1
:10272000D0AF9F009FB197000300E000040032008B
:1027300063006700020032008301E90093B79F0045
:102740000EE8A300090032001FB29700DFAA97002D
:10275000850F5200030034000502520094B79F0019
:10276000020037000003EB0096B79F00EF7397005D
:102770000700FB008000EB00C1A79F001FB197007E
:10278000800F51000200340000005100C0A79F00DC
:102790000E28A30044003200610167000E18A30058
:1027A0000F0032003C0090000068A30006003200D9
:1027B000B10220000200E000010032008180E80048
:1027C0000D0178000D003700B00220000200E0008B
:1027D000010032000080E8008C0078000E00370015
:1027E0000200E000100032003C0090000068A300EE
:1027F000070032000D017800010220000C00780073
:1028000071FB07000000E00006003A0006003700F8
:102810008C007800000220002B010700E10F40002F
:10282000010032008D06E800CFA197000300E00010
:102830006200320098B79F00A9B79F00BAB79F0007
:10284000CBB79F00830478003C0090000068A30091
:10285000070032000D017800010320000C00780011
:1028600059FB07000000E00006003A0006003700B0
:102870008C0078000003200013010700E10F4000E6
:10288000010032008D06E8008904E900EEFF3A00FD
:10289000C9A79F001FB49700AFB497003FB597003A
:1028A000CFB5970045003700CFA297000500E000A4
:1028B0001E0032000E38A3001C003A0098B79F009B
:1028C000A9B79F00BAB79F00CBB79F0085047800D7
:1028D0003C0090000068A300070032000D01780062
:1028E000010220000C00780037FB07000000E00028
:1028F00006003A00060037008C0078000002200035
:10290000F1000700E10F4000010032008D06E800F1
:102910008904E900EEFF3A00C9A79F001FB49700A1
:10292000AFB497003FB59700CFB59700610167003E
:102930000E18A3000F0032003C0090000068A300B6
:1029400006003200B10220000200E0000100320067
:102950008180E8000D0178000D003700B0022000F2
:102960000200E000010032000080E8008C007800E6
:102970000E0037000200E000100032003C00900022
:102980000068A300070032000D017800010220005A
:102990000C0078000CFB07000000E00006003A0085
:1029A000060037008C00780000022000C6000700F7
:1029B000E10F4000010032008D06E8005FA997009A
:1029C0008200E900C308DD0000B021000080400063
:1029D000F09F9F0098B79F00A9B79F00BAB79F00CC
:1029E000CBB79F0091003700DFAA97008502E9006E
:1029F000D5AF9F00000420001FAB9700800F53004D
:102A00006500320003003C000600E00008003200D0
:102A100072003700000820009FAB9700808F5300A2
:102A200048003200000C2000808F53006B003A00F9
:102A30000E00E0001A003D007F9897003004BE00B1
:102A40002005BE000802BE000A03BE001FB09700AA
:102A5000AFB097003FB19700CFB19700F5030700E3
:102A6000E0779F000000FB00CF80DE006109B90025
:102A70000802BE000A03BE00570407001FB29700F9
:102A8000AFB297003FB39700CFB397000002520058
:102A900081825A0002035B0083835B0017003700CA
:102AA0000E48A3001A0032001FB29700AFB2970081
:102AB0007F9B97003604BE002605BE000801BE00BD
:102AC0000400BE00F4B79F0085BF9F0004F9070013
:102AD000E0779F000000FB00CF80DE000801BE0011
:102AE000350307007FB297008FBA970000005200AD
:102AF00081805A000002BE006033B80094B79F0086
:102B0000A5B79F00B6B79F00C7B79F000900370061
:102B1000FF9A9700150178001FB397001100090074
:102B20000283D800A2002000110009000280D80012
:102B3000E1779F00EF7397000743B000E7779F00AE
:102B40002600370070AE21000E58A30001003200AD
:102B500060AD21005FAC9700C240DD001FB297005E
:102B6000AFB297003FB39700CFB397008100E90061
:102B7000050033008703D1000683D3008582D3008C
:102B80000482D300F9FF3700EF006200010040002B
:102B90001040780010003700DFA89700E308B90064
:102BA0001FB29700AFB297003FB39700CFB3970023
:102BB000000478000804E900050033008703D10011
:102BC0000683D3008582D3000482D300F9FF370047
:102BD000674062000043B000E0779F00BC009000B7
:102BE0006F7197000200FB000168A300070032002C
:102BF0000D017800800078000C00780072FA070060
:102C00000000E00005003A00050037008C00780065
:102C10002D000700E10F4000010032008D06E800A2
:102C2000FF999700E8815100F39F9F005FAA9700EA
:102C30000400E0006CFF3A000E38A30016003200DA
:102C4000CFA297000500E0001300340005077800CC
:102C50003C0090000068A300070032000D017800DE
:102C6000010220000C00780057FA07000000E00085
:102C700006003A00060037008C00780000022000B1
:102C800011000700E10F4000010032008D06E8004E
:102C90000E07E900EEFF3A006F9B970016407800A0
:102CA000E0779F000004E00060FA3A000D00780031
:102CB0004F0778004F06BE004F05BE004F04BE0010
:102CC000EF03B10000000600889FBE0001047800F9
:102CD000B80090008084EB000118A3003A00320095
:102CE000180190000198A30002003A000200E000E1
:102CF00035003A000190A00031049800800478006B
:102D0000F90FB2000200E00002003A002800900033
:102D1000000C7800EA8F540005003A000178A30007
:102D200003003A0088007800D0002000E6FF07008A
:102D300018009000D8009000810F50000B00320066
:102D40000000E80010049800180078000948780096
:102D5000000CE80011C0B300C0BC2100014878009D
:102D6000EA8F540018003A00050037008800780008
:102D7000094078001700070080047800120037002F
:102D8000380090000088A3000F0032001801900066
:102D9000A800900048009000EE26070098009000E0
:102DA000810F500004003200380090000003B3008F
:102DB000300498008084EB000000EB0010049800C1
:102DC00028009000000C7800090078004F04BE0035
:102DD000000006000200FA00889FBE00A0FF9F00CE
:102DE00001047800380090000068A30033003A0026
:102DF000E200600005003A000003B30030049800D0
:102E0000110498000080EB002E003700D8049000D9
:102E10000900E00006003A0012002000E68057009A
:102E200048009000CB2607001904980023003700C3
:102E3000A80090000100E00008003A00F1BC210069
:102E400021049800010C7800210020005104980012
:102E5000110498000030A000300498001801900080
:102E6000A800900048009000BA26070028009000B3
:102E70008080EB0011049800AFF8970001487800BB
:102E8000000CE8002FF89700EA4F50000B003A00C2
:102E9000380090000088A30008003200180190005C
:102EA000A800900048009000AA2607000000EB0050
:102EB00010049800A8009000010C7800AFF897006B
:102EC0000100FB004F04BE000080FA000000060075
:102ED0002800FA00889FBE008A9FBE008C9FBE001B
:102EE00007067800878669000C003B000304780021
:102EF0008704780008F0A10009F0A100840F5000B9
:102F0000858F5800860F5900890F5C00030033003D
:102F10000CF0A20001003A000CF0A100FE00070036
:102F20006400E1005F003200780147006408E100BE
:102F3000610032006C014700748557003200BE000A
:102F40001201BE003A04BE001A05BE001E03900026
:102F5000BE0A90008503530006003D000004FD00FA
:102F60008104FD000205FD008305FD008703EA00E2
:102F7000050378000DF8A30004003200600414007B
:102F8000E0841C0060051D00E0851D006022B80083
:102F90007D0320000D38E1008006EB000B003900B6
:102FA0004433DD00F300B2008301730039003700C1
:102FB000848272000D027800E10664008B85D100E6
:102FC0000A85D3008984D3000884D3008703E900ED
:102FD000F7FF3B0008004000898048000A014900D3
:102FE0008B81490004003B0060001000E080180065
:102FF00060011900E08119000358A30009003200A4
:103000008D82720084827200610260008301D100AF
:103010000281D3008180D3000080D3000603E80042
:103020001B0037000348A30017003A000600E00029
:10303000170034000603E9000D00A300000048005B
:103040008180480002014900838149000348A300B0
:103050000F003A000600E000090034000603E90012
:10306000000040008180480002014900838149003E
:1030700001003A000003EB000348A300F5FF320013
:103080006022B8000200370084827200618266000C
:103090007500070003F0A1000CF0A70003F0A000EA
:1030A000B1003700640147006408E10002003A0003
:1030B0000DF8A300A9003A003200BE001201BE00C4
:1030C000A90037008F1FD100EC0207008F87E900AD
:1030D0000000E00000000600809FEB00E702070010
:1030E0008F87E9000000E000000006002800FA00D9
:1030F000889FBE008A9FBE008C9FBE0003866B0027
:10310000850007006400E100440032006408E1002B
:103110004A0032006100E100460032006108E1002F
:1031200049003200EC0647006000B8003D02BE00D6
:103130003D03BE00F48657006011B8003D04BE0098
:103140003D05BE007D0320000B0037000000A000FD
:103150008D06E900130032000402420085824A0015
:1031600006034B0087834B0000004000818048002D
:1031700002014900838149000802520089825A00F5
:103180000A035B008B835B00F0FF3B0008024200F8
:1031900089824A000A034B008B834B008D06E900AD
:1031A000EDFF3A008482720086827200F707B20057
:1031B0008782720001003200150020001E0490007A
:1031C0003E0B900006035400E63FB0000368A300E6
:1031D000070032000000A7000500A0008301D10015
:1031E0000281D3008180D3000080D3000603E80071
:1031F0008301D1000281D3008180D3000080D300FD
:103200000002EB000482D2001700070003F0A100C7
:103210000CF0A70003F0A000530037006402470041
:103220006408E1004D0032003400BE003401BE00ED
:10323000F6FF37006108E100480032006011B80075
:103240006000B800F1FF370003FF270002002000F4
:10325000FBFF3700801FEB00880207008F87E90023
:103260000000E000000006001800200057002000C9
:10327000080453000D003D000600200097FC2F00BD
:103280000740E1001E003400848272006102600089
:103290008301D1000281D3008180D3000080D3005C
:1032A0000804E800F8FF3A004700200061046000CD
:1032B00005047400040464000D0032006100400045
:1032C000E080480060014900E081490003B8A500A2
:1032D000070032000603E8006538E10004003A0008
:1032E0008301D1000281D3008180D3000080D3000C
:1032F000F87F20000830E100030035000803780063
:103300006000B8006011B8004433DD00F300B20083
:103310008301730000000600680447000294BE00A9
:103320000094BE00FC0447008694BE008494BE0056
:10333000090078009A020700080078009802070048
:1033400099007800814F70000B003B000800BE0020
:10335000730207004F00B10003003700F3FF27009E
:10336000F2FF2F006110B9004F06BE004F05BE00EE
:103370004F04BE000080FA000000060081037800C0
:10338000FCF507000001BE006000B8000478A3004F
:1033900013003A006220E10015003E000D003900E4
:1033A0008301D1000281D3008180D3008301D10049
:1033B0000281D3008180D3008301D1000281D30038
:1033C0008180D3000538B000C42ADD00F300B200CC
:1033D0008381720007F0A70003F0A0000000060040
:1033E000F3FF2700F2FF2F006110B900FBFF370049
:1033F00003FF2700F7FF37001400FA00889FBE0084
:103400008A9FBE008C9FBE000004BE000205BE0065
:10341000680047000A90BE000890BE0060020700E6
:103420000070A7000BF0A1000BF8A30020003A00E9
:103430009E0990000E099000FE0090006E00900022
:103440009E0290003443200084825200C6FF320066
:103450000A003C00B4FC2F000428E10014003400F2
:103460008301D1000281D3008180D3000080D3008A
:103470008502E800FAFF3A00BBFF3700B4002000E5
:103480000428E10007003C00000040008180480063
:1034900002014900838149008502E900FAFF3A00F0
:1034A000B1FF3700030028000200200001003700B0
:1034B0006011B8006000B800ABFF3700889FBE0005
:1034C0000082700004027100048271002400320046
:1034D00036432000C50020008383CF000A00390056
:1034E0000541B1008283CF00070039000541B100DA
:1034F0008183CF00040039000541B1008083CF00F3
:10350000010039000541B10085C353006022B800B5
:10351000120032000A003B008482720061026000E7
:103520008301D1000281D3008180D3000080D300C9
:103530000603E8008743E800F7FF3A00070037007A
:103540000000400081804800020149008381490059
:103550000603E9008743E900F9FF3A0042FF07004C
:103560004F04BE00000006001400FA00889FBE0051
:103570008A9FBE008C9FBE00040678000004BE0037
:103580000205BE00680047000A90BE000890BE0019
:10359000030207006200E1000800BE000A01BE004D
:1035A000040020000B003A001E029000E43FB1002E
:1035B0006E009000FE0090000E0990009E099000A1
:1035C000F300B20005FE2300858171000BF0A70017
:1035D00003F0A000040E780063FF37002800FA0013
:1035E000889FBE008A9FBE008C9FBE0003866B0032
:1035F00049FF07000028A30064003A000128A30047
:1036000067003A000008A30062003A000108A30026
:1036100065003A001E009000BE0890008106400040
:10362000ED3FB100F4805700EE019000111AB80090
:103630008E099000311BB8009E099000311CB80023
:10364000511DB800F485570046000700FE019000A8
:103650003A0007008B85E8003E0007008E099000C5
:1036600040000700EE019000340007008B85E80061
:10367000380007008E099000400007009E09900066
:103680001B18B800890440000A854800FE0190001C
:10369000340007008B85E80038000700EE01900039
:1036A000300007008E0990001B18B8008904400004
:1036B0000A8548000A98A30008003A000402420064
:1036C00085824A0006034B0087834B0008044C00A8
:1036D00089844C000A054D008D06E9008482720041
:1036E000850273004C3ADD00850272000100320051
:1036F00015002000443ADE001400B2004538DE0018
:10370000CB45DD000B007000C540DE00CB4DDD0079
:103710008B8070004549DE00CB55DD000B01710048
:10372000C551DE000D037800CFFE070003F0A100B5
:103730000CF0A70003F0A0000BFF37001B18B80027
:103740008502400006834800E0834B0060044C0083
:10375000070037001B18B8000603400087834800A5
:10376000FAFF37001B18B8008703400008844800A0
:10377000E0844C0060054D00000006001B18B800F6
:103780000804400089844800FAFF37000108A300BC
:10379000F2FE3A005800BE005801BE00E3FF3700B9
:1037A0000008A300EDFE3A0009047800F9FF370095
:1037B00007F0A200C6FD3700020AB900001BB900DD
:1037C0000200B800810042008100430000000600B2
:1037D000889FBE008A9FBE0030044200B0844A0029
:1037E00030054B0090854B006000B1000898BE008A
:1037F0000A90BE000440E10005C8E10006D0E100E7
:1038000007D8E10002003100680040001008E8001D
:103810004F05BE004F04BE0000000600889FBE009A
:103820008A9FBE003004BE002005BE00041854006C
:1038300005985C0006185D0007985D0011002000E7
:103840000440E10005C8E10006D0E10007D8E1002E
:10385000010039008000EB00108810004F05BE0009
:103860004F04BE00000006001200FA00889FBE0050
:103870008A9FBE008C9FBE00E0B79F00F1B79F00FB
:1038800082BF9F0093BF9F000605BE000404BE00D8
:103890000000EB00D0B79F00C0B79F00B0B79F00FB
:1038A000A0B79F0090B79F000006EB005FB19700A4
:1038B000CFB09700820141003FB097000200E000C6
:1038C00004003D00370007007E805700C0FF07005E
:1038D00003003700330007007E805700CFFF07004A
:1038E000DFB697000D00E0000C0035006FB29700C6
:1038F000FFB297000FBB97009FBB970010002000FE
:10390000010020006011B800000272008182720084
:1039100002037300838373001B0007000C06E8009A
:1039200001042000810F5600E0FF3A000D00E00086
:1039300004003D000802BE000A03BE007E8057005E
:10394000A3FF07005FA897000000E00005003A0011
:103950001FB29700AFB297003FB39700CFB3970065
:10396000090007006FB09700FFB097000FB99700EC
:103970009FB997004F06BE004F05BE004F04BE0022
:103980000080FA00000006000100070000000600A9
:10399000A4B79F00B5B79F00C6B79F00D7B79F00D9
:1039A000000006004F09DE0082817100B3B79F005E
:1039B0004F01DE008180400082807000A1B79F002F
:1039C0008FB097004F09DE00000040000200700039
:1039D00090B79F007FA897004F01DE0081804000D4
:1039E0008280700081B79F000D0007004F3ADE0013
:1039F0000000400004007000F0AF9F0008000700C6
:103A00000402420085824A0006034B0087834B0074
:103A1000DFFF07000802BE000A03BE000000060028
:103A20002FB29700BFB297004FB39700DFB3970054
:103A300000000600881F780018002000881F78000A
:103A400089FF07008F87E9004F0478000000060017
:103A5000801FEB0084FF07008F87E900000006004D
:103A6000889FBE008A9FBE00E00F5000E08F580084
:103A7000E00F5900E08F59000C003D006044B80091
:103A80006055B8000000540081805C0002015D00B8
:103A900083815D00180020001500070008003D002C
:103AA000180007000004EB00050037000004EB00DD
:103AB0000F00070002003D00120007001800200060
:103AC000DCFF07000800E000060032006022B800BA
:103AD0006033B8000000520081805A0002015B0090
:103AE00083815B004F05BE004F04BE00000006004E
:103AF000E00F5200E08F5A00E00F5B00E08F5B00A8
:103B0000000006006044B8006055B800040254008C
:103B100085825C0006035D0087835D00000006006F
:103B2000889FBE008A9FBE008C1F7800E00F500067
:103B3000E08F5800E00F5900E08F59000D003D0064
:103B40006044B8006055B8000000540081805C00FB
:103B500002015D0083815D001C0020000820E1005F
:103B600009A8E1000AB0E1000BB8E1000D003D003A
:103B7000080037000006EB00E00F5200E08F5A000B
:103B8000E00F5B00E08F5B0006003D006044B80082
:103B90006055B8000402540085825C0006035D0095
:103BA00087835D00AAFF07000C00E00006003200DA
:103BB0006022B8006033B8000000520081805A00D3
:103BC00002015B0083815B004F0678004F05BE0059
:103BD0004F04BE0000000600889FBE008A9FBE0002
:103BE0008C1F78000006EB00E00F5000E08F5800BB
:103BF000E00F5900E08F590007003D006044B80015
:103C00006055B8000000540081805C0002015D0036
:103C100083815D001C002000E00F5200E08F5A00FD
:103C2000E00F5B00E08F5B0007003D006044B800E0
:103C30006055B8000402540085825C0006035D00F4
:103C400087835D000C00A2007C0007000C00E000F0
:103C5000060032006022B8006033B8000000520055
:103C600081805A0002015B0083815B004F0678006F
:103C70004F05BE004F04BE0000000600889FBE0036
:103C80008A9FBE008C9FBE000404BE000605BE00D5
:103C9000809FBE00829FBE002F00070004067800B0
:103CA0000800BE000A01BE002B0007008406780051
:103CB0004F03BE004F02BE008D4F76007FB09700CD
:103CC00013003300F0FF2F008B8F6B0006003B00CA
:103CD0000D0666000C00A7000A00370007F0A600DA
:103CE000100020000A003700880F5200898F5A0008
:103CF0008A0F5B008B8F5B000300390010002000EF
:103D000001003E000000200007F0A7000000EA00CC
:103D10004F06BE004F05BE004F04BE000000060067
:103D2000E48240001078A3000700320064024000E3
:103D30001178A3003400BE001401BE00040032005C
:103D40000330A700000006003500BE001501BE00CC
:103D50000330A0000000060005FF27000582610077
:103D6000070032000428E1000100320024000500B1
:103D70000600070001003A004400050004080500A1
:103D800002000700F9FF3A00140005006F8261008D
:103D90008102700085027100850272000000060039
:103DA000800078005002BE005003BE004439DE009F
:103DB000F700B200F37F2000030161000900320028
:103DC0000218E10016003A008501720083017300B9
:103DD000838173000008200015003A004000200095
:103DE0001300370085017200830173008381730023
:103DF00005003A0004A8BE0006A8BE00100020007E
:103E00000B0037000201E9000402420085824A00EB
:103E100006034B0087834B000748A300F9FF3200DD
:103E20000740A00004A8BE0006A8BE002000200095
:103E3000800098009200980000000600889FBE0055
:103E40008A9FBE008C9FBE000404B8000506B8001F
:103E50008904460060854E000606B8000A05460043
:103E6000E0854E000706B8008B054600040EB8003A
:103E7000890446000A854E00E0854D00050EB80015
:103E80000A0546008B854E00060EB8008B054600DD
:103E90000416B8000A0546008B854E000516B800CA
:103EA0008B054600041EB8008B0546000800BE00C6
:103EB0000A01BE004F06BE004F05BE004F04BE0003
:083EC0000000060000000000F4
:10400000D4C3B2A10000000000000000003E000088
:104010005B4F00005B3E00003E6B00004F6B0000FA
:104020003E1C00003E7C00003E1C0000183C0000CE
:104030007E3C0000181C0000577D0000571C00004B
:104040001C5E00007F5E00001C000000183C0000A9
:1040500018000000FFE70000C3E70000FF000000B9
:104060001824000018000000FFE70000DBE7000054
:10407000FF300000483A0000060E0000262900002C
:1040800079290000264000007F0500000507000098
:10409000407F0000052500003F5A00003CE700007B
:1040A0003C5A00007F3E00001C1C00000808000075
:1040B0001C1C00003E7F0000142200007F22000034
:1040C000145F00005F0000005F5F00000609000051
:1040D0007F0100007F00000066890000956A0000F3
:1040E000606000006060000060940000A2FF0000BB
:1040F000A2940000080400007E04000008100000E4
:10410000207E000020100000080800002A1C00008B
:10411000080800001C2A0000080800001E1000000B
:1041200010100000100C00001E0C00001E0C0000FF
:10413000303800003E380000300600000E3E00001F
:104140000E0600000000000000000000000000005B
:10415000005F0000000000000007000000070000F2
:10416000001400007F1400007F140000242A0000C7
:104170007F2A000012230000130800006462000080
:1041800036490000562000005000000008070000DB
:1041900003000000001C000022410000000000009D
:1041A000412200001C0000002A1C00007F1C0000AF
:1041B0002A080000083E00000808000000800000F7
:1041C0007030000000080000080800000808000027
:1041D00000000000606000000020000010080000E7
:1041E000040200003E510000494500003E0000006E
:1041F000427F000040000000724900004949000071
:1042000046210000414900004D3300001814000011
:10421000127F0000102700004545000045390000CE
:104220003C4A0000494900003141000021110000D2
:1042300009070000364900004949000036460000E1
:1042400049490000291E0000000000001400000081
:1042500000000000403400000000000000080000E2
:104260001422000041140000141400001414000073
:104270000041000022140000080200000159000063
:10428000090600003E4100005D5900004E7C000020
:1042900012110000127C00007F4900004949000013
:1042A000363E000041410000412200007F410000F5
:1042B000414100003E7F00004949000049410000A3
:1042C0007F09000009090000013E00004141000093
:1042D000517300007F080000080800007F00000004
:1042E000417F00004100000020400000413F0000ED
:1042F000017F000008140000224100007F40000000
:1043000040400000407F0000021C0000027F0000CF
:104310007F040000081000007F3E000041410000C3
:10432000413E00007F09000009090000063E000030
:1043300041510000215E00007F09000019290000A2
:1043400046260000494900004932000003010000F0
:104350007F010000033F000040400000403F00009C
:104360001F200000402000001F3F000040380000D8
:10437000403F0000631400000814000063030000C5
:10438000047800000403000061590000494D00005A
:10439000430000007F410000414100000204000092
:1043A000081000002000000041410000417F000093
:1043B0000402000001020000044000004040000030
:1043C000404000000003000007080000002000003B
:1043D00054540000784000007F280000444400004E
:1043E00038380000444400004428000038440000ED
:1043F000442800007F380000545400005418000086
:10440000000800007E09000002180000A4A40000BB
:104410009C7800007F080000040400007800000081
:10442000447D00004000000020400000403D0000AE
:10443000007F000010280000440000000041000040
:104440007F400000007C0000047800000478000039
:104450007C08000004040000783800004444000098
:1044600044380000FC180000242400001818000044
:104470002424000018FC00007C0800000404000054
:1044800008480000545400005424000004040000B4
:104490003F440000243C000040400000207C00001D
:1044A0001C200000402000001C3C000040300000A8
:1044B000403C00004428000010280000444C00004C
:1044C00090900000907C000044640000544C000078
:1044D0004400000008360000410000000000000019
:1044E00077000000000000004136000008000000D6
:1044F0000201000002040000023C0000262300002C
:10450000263C00001EA10000A1610000123A00003C
:1045100040400000207A000038540000545500004C
:104520005921000055550000794100002154000038
:1045300054780000412100005554000078400000EC
:104540002054000055790000400C00001E5200006D
:10455000721200003955000055550000593900000D
:1045600054540000545900003955000054540000C0
:1045700058000000004500007C41000000020000DF
:10458000457D000042000000014500007C40000025
:10459000F029000024290000F0F000002825000088
:1045A00028F000007C540000554500000020000069
:1045B000545400007C5400007C0A0000097F000075
:1045C00049320000494900004932000032480000E9
:1045D00048480000323200004A48000048300000DD
:1045E0003A410000412100007A3A000042400000B8
:1045F00020780000009D0000A0A000007D39000090
:1046000044440000443900003D40000040400000A8
:104610003D3C000024FF000024240000487E0000F0
:1046200049430000662B00002FFC00002F2B0000E8
:10463000FF09000029F6000020C00000887E00006D
:1046400009030000205400005479000041000000DC
:10465000004400007D41000030480000484A00004E
:104660003238000040400000227A0000007A00004A
:104670000A0A0000727D00000D190000317D000063
:1046800026290000292F00002826000029290000E3
:1046900029260000304800004D400000203800006E
:1046A00008080000080800000808000008080000CA
:1046B000382F000010C80000ACBA00002F10000016
:1046C00028340000FA000000007B00000000000019
:1046D000081400002A14000022220000142A0000FE
:1046E00014080000AA00000055000000AAAA00005B
:1046F00055AA000055AA00000000000000FF0000BD
:104700000010000010100000FF0000001414000052
:1047100014FF00000010000010FF000000FF000068
:1047200010100000F0100000F0140000141400003D
:10473000FC00000014140000F7000000FF0000005F
:1047400000FF000000FF000014140000F40400004B
:10475000FC14000014170000101F000010100000CF
:104760001F1000001F140000141400001F000000A0
:104770001010000010F00000000000000000000019
:104780001F10000010100000101F0000101000008B
:1047900010100000F01000000000000000FF0000FA
:1047A0001010000010100000101000001010000089
:1047B00010FF00001000000000000000FF140000C7
:1047C00000000000FF000000FF000000001F0000CC
:1047D0001017000000000000FC040000F4140000AA
:1047E000141700001017000014140000F404000057
:1047F000F400000000FF000000F7000014140000A7
:10480000141400001414000014F7000000F7000056
:10481000141400001417000014100000101F0000F2
:10482000101F00001414000014F400001410000005
:1048300010F0000010F00000000000001F10000049
:104840001F000000000000001F1400000000000016
:1048500000FC00001400000000F0000010F0000058
:1048600010100000FF100000FF14000014140000DE
:10487000FF14000010100000101F000000000000D6
:1048800000000000F0100000FFFF0000FFFF00002C
:10489000FFF00000F0F00000F0F00000FFFF00006B
:1048A000FF0000000000000000000000FFFF00000B
:1048B0000F0F00000F0F00000F38000044440000ED
:1048C000384400007C2A00002A3E0000147E0000CC
:1048D0000202000006060000027E0000027E0000C8
:1048E00002630000554900004163000038440000A5
:1048F000443C0000044000007E2000001E20000018
:10490000060200007E02000002990000A5E70000F8
:10491000A59900001C2A0000492A00001C4C000038
:1049200072010000724C0000304A00004D4D000042
:10493000303000004878000048300000BC620000C1
:104940005A4600003D3E0000494900004900000071
:104950007E010000010100007E2A00002A2A0000DA
:104960002A2A0000444400005F4400004440000044
:10497000514A000044400000404400004A510000F9
:104980004000000000FF000001030000E080000084
:10499000FF00000000080000086B00006B0800002A
:1049A0003612000036240000360600000F09000011
:1049B0000F060000000000001818000000000000B2
:1049C000001000001000000030400000FF01000057
:1049D000010000001F010000011E0000001900007E
:1049E0001D170000120000003C3C00003C3C000091
:1049F00000000000000000000002000000000000B5
:104A0000000100002F000000000300000300000070
:104A1000030300000C1E00000C030000163700000A
:104A20001E03000010080000040300001E370000F1
:104A30001601000003000000000300000C1200003B
:104A400021030000211200000C03000014080000E4
:104A500014030000081C00000801000060000000B2
:104A6000000300000808000008010000200000000A
:104A700000030000300C0000030300003E61000052
:104A80003E020000017F00000003000071490000A9
:104A900046030000494900007F0300000F080000A2
:104AA0007F0300004F490000390300007E490000E9
:104AB00079030000010100007F0300007F4900002E
:104AC0007F0300000E0900007F01000024000000A9
:104AD000000100006400000000030000041E00004C
:104AE000120300001414000014030000121E000042
:104AF000040200002D070000000300001C1200004B
:104B0000160300003E0500003F0300003E250000A4
:104B10003B0300003E210000210300003F21000074
:104B20003E0300003E250000250300003E05000076
:104B3000050300003E2100001D0300003F040000AB
:104B40003F0100003F0000000003000020200000A3
:104B50001F0300003F0400003B0300003F20000053
:104B6000200300003F0200003F0300003F0200005E
:104B70003C0300003E2100003F0300003E05000012
:104B8000030300001E3100002F0300003E0500005B
:104B90003B0300002225000039030000013F000014
:104BA000010300003F2000003F0300001F20000021
:104BB0001F0300003F1000003F0300003B04000003
:104BC0003B030000073C00000703000039250000FC
:104BD000230200003F21000000030000030C00003E
:104BE00030020000213F000000030000020100002D
:104BF000020300002020000020010000030000004C
:104C0000000300003E0500003F0300003E250000B9
:104C10003B0300003E210000210300003F21000073
:104C20003E0300003E250000250300003E05000075
:104C3000050300003E2100001D0300003F040000AA
:104C40003F0100003F0000000003000020200000A2
:104C50001F0300003F0400003B0300003F20000052
:104C6000200300003F0200003F0300003F0200005D
:104C70003C0300003E2100003F0300003E05000011
:104C8000030300001E3100002F0300003E0500005A
:104C90003B0300002225000039030000013F000013
:104CA000010300003F2000003F0300001F20000020
:104CB0001F0300003F1000003F0300003B04000002
:104CC0003B030000073C00000703000039250000FB
:104CD00023030000043F0000210100003F0000000A
:104CE00000030000213F0000040300000201000057
:104CF000020200003E3E000000050000000000002F
:104D000000000000000000000000000000000000A3
:104D10000000000000000000000000000100000092
:104D20000000000000000000000000000000000083
:104D30000000000000000000000000000001000072
:104D40000C00000000000000000000000000000057
:104D50000000000000000000000000000000000053
:104D60000800000003000000030000000300000032
:104D70000300000003000000030000000300000027
:104D8000030200003E010000C4000000000000001B
:104D90000000000000000000000000000000000013
:104DA0000000000005940000006800000090000072
:104DB0000048000001840000000000000000000026
:104DC000000000000003000024010000D8010000E2
:104DD0004001000000000000000000000000000092
:104DE00000000000000000000100000000000000C2
:104DF00000000000000000000000000000000000B3
:104E0000000000000000000000040000FF0300009C
:104E1000FF03000003030000030300000000000084
:104E200000000000000000000000000004FF00007F
:104E300003FF000003FF000003FE0000010000006C
:104E4000000000000000000000000000000800005A
:104E5000CC000000CC00000030000000300000005A
:104E6000CC000000CC00000003030000030300009E
:104E700003F80000002000000020000000000000F7
:104E80000000000000000000000000000000000022
:104E90000001000000000000000000000000000011
:104EA0000000000000000000000000000000000002
:104EB00000000000014000000000000000000000B1
:104EC00000000000000000000000000000000000E2
:104ED00000000000000200000003000000030000CA
:104EE00000000000000000000000000000000000C2
:104EF0000000000000000000010C000000000000A5
:104F000000000000000000000000000000000000A1
:104F1000000000000000000000080000FE0100008A
:104F2000FF030000FF030000230300001303000041
:104F3000FF030000FF030000FE0100000403000067
:104F400000FF000003FF000003FE0000030000005C
:104F50000000000000000000000000000008000049
:104F6000E3030000F3030000F30300003303000039
:104F7000330300003F0300003F0300001E03000056
:104F800008030000030300000333000003330000A4
:104F90000333000003FF000003FF000003CE000006
:104FA000010800000F0000001F0000003F0000008B
:104FB0003000000030000000FF030000FF0300008D
:104FC000FF030000081F0000033F0000033F000034
:104FD000033300000333000003F3000003F3000079
:104FE00003E3000001080000FE010000FF030000D1
:104FF000FF0300003303000033030000F30300004D
:10500000F3030000E30100000803000000030000B8
:1050100000030000000300000003000000FF000088
:1050200003FF000003FE000003080000CE010000A3
:10503000FF030000FF030000330300003303000000
:10504000FF030000FF030000CE010000081E000067
:10505000033F0000033F0000033300000333000060
:1050600003FF000003FF000003FE00000101000039
:105070000000000000000000000000000000000030
:105080000000000000000000000000000000000020
:10509000010000000000000000000000000000000F
:1050A0000000000000000000000000000000000000
:1050B0000002000050000000880000000000000016
:1050C00000000000000000000000000000000000E0
:1050D000000000000250000000500000000000002E
:1050E00000000000000000000000000000000000C0
:1050F000000000000002000050000000200000003E
:10510000000000000000000000000000000000009F
:105110000000000000000000026400000118000010
:10512000000000000000000000000000000000007F
:105130000000000000000000000600006402000003
:105140009402000094020000F402000088020000B3
:1051500070000000000000000000000008FF0000D8
:1051600003FF000003FF00000333000000330000D2
:1051700000FF000003FF000003FF00000308000021
:10518000FF030000FF030000FF03000033030000E3
:1051900033030000FF030000FF030000FF030000D3
:1051A00008FF000003FF000003FF000003030000EE
:1051B00003030000030300000303000003030000D7
:1051C00003080000FF030000FF030000FF030000CE
:1051D0000303000003030000FF030000FF030000BF
:1051E000FF03000008FF000003FF000003FF0000B2
:1051F0000333000003330000033300000303000007
:105200000303000003080000FF030000FF03000089
:10521000FF030000330000003300000033000000F3
:10522000030000000300000008FF000003FF00006F
:1052300003FF0000030300000333000003F300003A
:1052400003F3000003F3000003080000FF03000065
:10525000FF030000FF0300003000000030000000EA
:10526000FF030000FF030000FF03000003FF000036
:1052700003FF000003FF0000030000000000000027
:105280000000000000000000000000000008000016
:105290000003000000030000000300000003000002
:1052A00000030000FF030000FF030000FF030000F5
:1052B00008FF000003FF000003FF000003300000B0
:1052C0000030000000FF000003FF000003FF0000AB
:1052D00003080000FF030000FF030000FF030000BD
:1052E00000030000000300000003000000030000B2
:1052F0000003000008FF000003FF000003FF0000A0
:10530000030300000003000000FF000003FF000093
:1053100003FF000003080000FF030000FF0300007C
:10532000FF0300000300000003000000FF03000073
:10533000FF030000FF03000008FF000003FF000060
:1053400003FF0000030300000303000003FF00004D
:1053500003FF000003FF000003080000FF0300003C
:10536000FF030000FF0300003300000033000000D3
:105370003F0000003F0000003F00000008FF000069
:1053800003FF000003FF000003030000030300000D
:1053900003FF000003FF000003FF000003080000FC
:1053A000FF030000FF030000FF03000033000000C4
:1053B00033000000FF030000FF030000FF030000B4
:1053C000083F0000033F0000033F000003330000DC
:1053D0000333000003F3000003F3000003F30000B5
:1053E000030800000300000003000000FF030000AA
:1053F000FF030000FF030000FF03000003000000A4
:105400000300000008FF000003FF000003FF00008E
:10541000030000000300000003FF000003FF000082
:1054200003FF000003080000FF030000FF0300006B
:10543000FF0300000003000000030000FF03000062
:10544000FF030000FF03000008FF000003FF00004F
:1054500003FF0000030000000300000003FF000042
:1054600003FF000003FF000003080000FF0300002B
:10547000FF030000FF0300003000000030000000C8
:10548000FF030000FF030000FF030000083F0000CF
:10549000003F000000FF000003F0000003F00000E8
:1054A00003FF0000033F0000003F00000008000071
:1054B000F3030000F3030000F303000033030000D4
:1054C000330300003F0300003F0300003F030000E0
:1054D00004FF000003FF00000303000003030000BB
:1054E00003000000000000000000000000000000B9
:1054F000000100008001000000000000000000002A
:10550000000000000000000000000000000000009B
:105510000000000004FF000003FF000003FF000084
:1055200003FF000003000000000000000000000076
:10553000000000000003000004000000080000005C
:10554000100000000000000000000000000000004B
:10555000000000000000000001000000000000004A
:10556000000000000000000000000000000000003B
:10557000000000000000000000010000000000002A
:10558000000000000000000000000000000000001B
:1055900000000000000000000000000008FF000004
:1055A00003FF0000033300000033000000FF000091
:1055B00003FF000003FF000003FE000003080000DB
:1055C000FF030000FF03000033030000330300006B
:1055D000FF030000FF030000FF030000CE010000F6
:1055E00008FF000003FF00000303000003030000A6
:1055F0000303000003030000030300000303000093
:1056000003080000FF030000FF0300000303000085
:1056100003030000FF030000FF030000FF0300007E
:10562000FE01000008FF000003FF0000033300003C
:1056300003330000033300000303000003030000F2
:105640000303000003080000FF030000FF03000045
:1056500033000000330000003300000003000000AE
:10566000030000000300000008FF000003FF00002B
:10567000030300000333000003F3000003F3000002
:1056800003F3000003F3000003080000FF03000021
:10569000FF0300003000000030000000FF030000A6
:1056A000FF030000FF030000FF03000002FF0000F3
:1056B00003FF0000030000000000000000000000E5
:1056C00000000000000000000000000000080000D2
:1056D00000030000000300000003000000030000BE
:1056E000FF030000FF030000FF030000FF010000B4
:1056F00008FF000003FF000003300000003000003E
:1057000000FF000003FF000003FF000003CF0000C4
:1057100003080000FF030000FF0300000003000077
:10572000000300000003000000030000000300006D
:105730000003000008FF000003FF00000303000057
:105740000003000000FF000003FF000003FF000053
:1057500003FF000003080000FF030000FF03000038
:105760000300000003000000FF030000FF0300002F
:10577000FF030000FE03000008FF000003FF00001D
:10578000030300000303000003FF000003FF000009
:1057900003FF000003FE000001080000FF030000FB
:1057A000FF03000033000000330000003F00000052
:1057B0003F0000003F0000001E00000008FF000046
:1057C00003FF0000030300000303000003FF0000C9
:1057D00003FF000003FF000003FE000001080000BB
:1057E000FF030000FF03000033000000330000004F
:1057F000FF030000FF030000FF030000CE030000D2
:10580000083F0000033F00000333000003330000A3
:1058100003F3000003F3000003F3000003E30000C0
:105820000108000003000000FF030000FF03000068
:10583000FF030000FF03000003000000030000005E
:105840000300000008FF000003FF00000300000049
:105850000300000003FF000003FF000003FF00003F
:1058600003FF000001080000FF030000FF03000029
:105870000003000000030000FF030000FF0300001E
:10588000FF030000FF01000008FF000003FF00000D
:10589000030000000300000003FF000003FF0000FE
:1058A00003FF000003FF000003080000FF030000E7
:1058B000FF0300003000000030000000FF03000084
:1058C000FF030000FF030000CF030000083F0000BB
:1058D00000FF000003F0000003F0000003FF0000E1
:1058E000033F0000003F0000001F00000008000010
:1058F000F3030000F3030000330300003303000050
:105900003F0300003F0300003F0300001F030000AF
:105910000104000000000000000000000000000082
:105920000000000000000000000000000000000077
:105930000001000000000000000000000000000066
:105940000000000000000000000000000000000057
:105950000000000001400000000000000000000006
:105960000000000000000000000000000000000037
:105970000000000000020000080000000400000019
:105980000000000000000000000000000000000017
:105990000000000000000000010000000000000006
:1059A00000000000000000000000000000000000F7
:1059B00000000000000000000002000000000000E5
:1059C00000020000001300000003000003000000BC
:1059D000030300001F0A00001F030000061B000055
:1059E0000C03000019040000130300000A15000056
:1059F0001A0200000003000000030000000E000077
:105A000011020000110E0000000300000A04000053
:105A10000A030000040E0000040200000010000051
:105A20000003000004040000040200000010000055
:105A300000030000100E0000010300001F11000011
:105A40001F030000121F00001003000019150000C2
:105A500013030000111500001F03000007040000DD
:105A60001F030000171500001D0300001F15000094
:105A70001D030000011D0000030300001F150000AE
:105A80001F030000171500001F020000000A00009D
:105A9000000200000012000000030000040A0000E1
:105AA000110300000A0A00000A030000110A0000A6
:105AB0000403000001150000030300001F11000093
:105AC000170300001F0500001F0300001F15000042
:105AD0001B0300001F110000110300001F11000034
:105AE0000E0300001F150000110300001F05000039
:105AF000010300001F1100001D0300001F0400002F
:105B00001F030000111F0000110300001810000007
:105B10001F0300001F0400001B0300001F100000F3
:105B2000100300001F0200001F0300001E040000FD
:105B30000F0300001F1100001F0300001F050000DD
:105B4000070300001F1100001F0300001F050000D5
:105B50001A030000171500001D030000011F0000BC
:105B6000010300001F1000001F0300000F100000C1
:105B70000F0300001F0800001F0300001B040000AB
:105B80001B030000031C00000303000019150000A4
:105B900013030000001F000011030000010E0000AD
:105BA00010020000111F00000003000002010000AD
:105BB00002010000000000000001000000000000E1
:105BC000000300001F0500001F0300001F15000058
:105BD0001B0300001F110000110300001F11000033
:105BE0000E0300001F150000110300001F05000038
:105BF000010300001F1100001D0300001F0400002E
:105C00001F030000111F0000110300001810000006
:105C10001F0300001F0400001B0300001F100000F2
:105C2000100300001F0200001F0300001E040000FC
:105C30000F0300001F1100001F0300001F050000DC
:105C4000070300001F1100001F0300001F050000D4
:105C50001A030000171500001D030000011F0000BB
:105C6000010300001F1000001F0300000F100000C0
:105C70000F0300001F0800001F0300001B040000AA
:105C80001B030000031C00000303000019150000A3
:105C900013030000041F000011020000001F000099
:105CA00000030000111F00000403000001030000B6
:105CB000020300003F0000003F3C0000FCFC00002D
:105CC000FCFC0000FCFC0000FC00000000000000E8
:105CD00000000000000000000000000000000000C4
:105CE00000800000C0E00000F0F80000F8FC0000B8
:105CF000FCFC0000FCFC0000FCFC0000FCFC0000C4
:105D0000FCFC0000FCFC0000FCFC000000000000AB
:105D10000000000000000000804000002020000083
:105D20004080000000800000402000002020000093
:105D30004080000020E000002000000080E0000023
:105D40000000000020E000002000000080E00000D3
:105D50000000000020E000002020000020C0000023
:105D60000080000040200000204000008000000073
:105D700000200000E02000000000000020E0000003
:105D80002020000020C0000020E0000020200000B3
:105D90006080000000000000000000000000000023
